:100000000C94AB000C94C8000C94C8000C94C8006D
:100010000C94C8000C94C8000C94C8000C94C80040
:100020000C94C8000C94C8000C94C8000C94C80030
:100030000C94C8000C94C8000C94C8000C94C80020
:100040000C94C8000C94C8000C94C8000C94C80010
:100050000C94C8006E616E00696E660000407A10F4
:10006000F35A00A0724E18090010A5D4E80000E869
:100070007648170000E40B54020000CA9A3B0000C7
:1000800000E1F505000080969800000040420F0056
:100090000000A08601000000102700000000E80317
:1000A000000000006400000000000A0000000000E2
:1000B0000100000000002C76D888DC674F0823DFA1
:1000C000C1DFAE59E1B1B796E5E3E453C63AE65174
:1000D000997696E8E6C28426EB898C9B62ED407C9B
:1000E0006FFCEFBC9C9F40F2BAA56FA5F490055A37
:1000F0002AF75C936B6CF9676DC11BFCE0E40D475C
:10010000FEF520E6B500D0ED902E0300943577057E
:100110000080841E080000204E0A000000C80C3336
:100120003333330F986E12831141EF8D2114893BC5
:10013000E65516CFFEE6DB18D1844B381BF77C1D45
:10014000901DA4BBE424203284725E228100C9F198
:1001500024ECA1E53D2711241FBECFE5D8E0DEBF8A
:10016000CDBF10E0A0E6B0E0E0E6F8E102C0059007
:100170000D92AC3CB107D9F720E0ACECB0E001C087
:100180001D92A73EB207E1F70E9446040C942E0C84
:100190000C94000094EA96BF06B607FEFDCF91B11D
:1001A000987F983011F0903179F483B984E886BF54
:1001B00006B607FEFDCF91B1987F983139F081E006
:1001C000903429F480E0089581E0089580E0089556
:1001D00084E986BF06B604FCFDCF089583B984E8A0
:1001E00086BF06B607FEFDCF91B1987F81E09832B9
:1001F00009F480E00895CF93DF93C82F8EE40E9426
:10020000CA00DC2FD07F8091CC0084608D2B0E94AF
:10021000EE0089EF90E00197F1F700C000008091B7
:10022000CC008D2B0E94EE0089EF90E00197F1F752
:1002300000C0000090E1C99FE00111248091CC0032
:1002400084608C2B0E94EE0089EF90E00197F1F71B
:1002500000C000008091CC008C2B0E94EE0089EF42
:1002600090E00197F1F700C000000E94E800DF91E4
:10027000CF910895CF93C82F8EE40E94CA00C07F0B
:100280008091CC0084608C2B0E94EE0089EF90E07E
:100290000197F1F700C000008091CC008C2B0E94E8
:1002A000EE0089EF90E00197F1F700C000000E9496
:1002B000E800CF9108958093CC0080E30E943A013A
:1002C00080E30E943A0180E30E943A0180E20E94AA
:1002D0003A0187E893E10197F1F700C0000088E256
:1002E0000E94FB008CE00E94FB0086E00E94FB0065
:1002F00081E00E94FB000895CF93DF93C82F8EE426
:100300000E94CA00DC2FD07F8091CC00D82B8D2F8B
:1003100085600E94EE00DA7F8091CC008D2B0E94D8
:10032000EE0080E1C89F90011124C091CC00C5600F
:10033000C22B8C2F0E94EE002C2F2A7F8091CC00A4
:10034000822B0E94EE000E94E800DF91CF91089579
:10035000623031F0633031F0613029F4805C03C0E9
:100360008C5E01C08C5A80680E94FB00089581E079
:100370000E94FB0008951F93CF93DF930097B1F085
:10038000EC0110E007C0FE01E20FF31F80810E9424
:100390007C011F5F212F30E0FE0101900020E9F772
:1003A0003197EC1BFD0B2E173F0768F3DF91CF91C0
:1003B0001F910895CF93DF93EC01862F642F0E9445
:1003C000A801CE010E94BB01DF91CF910895672B58
:1003D00009F09FC0009711F4D898089581309105D5
:1003E00011F4D99808958230910511F4DA9808959E
:1003F0008330910511F4DB9808958430910511F450
:10040000DC9808958530910511F4DD9808958630C3
:10041000910511F4DE9808958730910511F4DF9865
:1004200008958A30910511F4C09808958B30910594
:1004300011F4C19808958C30910511F4C298089573
:100440008D30910511F4C39808958E30910511F403
:10045000C49808958F30910511F4C598089580319E
:10046000910511F4C69808958131910511F4C7984A
:1004700008958431910511F4A89808958531910566
:1004800011F4A99808958631910511F4AA98089558
:100490008731910511F4AB9808958831910511F4D5
:1004A000AC9808958931910511F4AD9808958A3179
:1004B000910511F4AE9808958B31910511F4AF9820
:1004C00008958E31910511F4909808958F3191051A
:1004D00011F4919808958032910511F4929808953D
:1004E0008132910511F4939808958232910511F4A7
:1004F000949808958332910511F495980895843263
:10050000910511F496980895859709F09FC09798E2
:100510000895009711F4D89A08958130910511F447
:10052000D99A08958230910511F4DA9A08958330AA
:10053000910511F4DB9A08958430910511F4DC9A49
:1005400008958530910511F4DD9A0895863091055E
:1005500011F4DE9A08958730910511F4DF9A089519
:100560008A30910511F4C09A08958B30910511F4E9
:10057000C19A08958C30910511F4C29A08958D3076
:10058000910511F4C39A08958E30910511F4C49A1F
:1005900008958F30910511F4C59A08958031910521
:1005A00011F4C69A08958131910511F4C79A0895FE
:1005B0008431910511F4A89A08958531910511F4BB
:1005C000A99A08958631910511F4AA9A0895873160
:1005D000910511F4AB9A08958831910511F4AC9A04
:1005E00008958931910511F4AD9A08958A319105E4
:1005F00011F4AE9A08958B31910511F4AF9A0895D4
:100600008E31910511F4909A08958F31910511F46E
:10061000919A08958032910511F4929A0895813249
:10062000910511F4939A08958232910511F4949AE8
:1006300008958332910511F4959A089584329105B5
:1006400011F4969A0895859709F4979A0895CF938F
:10065000C82F80FF07C061E070E082E290E00E9456
:10066000E70106C060E070E082E290E00E94E701EE
:10067000C1FF07C061E070E083E290E00E94E70103
:1006800006C060E070E083E290E00E94E701C2FFF4
:1006900007C061E070E084E290E00E94E70106C0DC
:1006A00060E070E084E290E00E94E701C3FF07C0D1
:1006B00061E070E085E290E00E94E70106C060E042
:1006C00070E085E290E00E94E701CF910895CF931A
:1006D000C82F60E070E08AE190E00E94E7018C2F73
:1006E0000E94270361E070E08BE190E00E94E70147
:1006F00087EC90E00197F1F700C0000060E070E047
:100700008BE190E00E94E70187EC90E00197F1F720
:1007100000C00000CF91089580E00E94670381E04F
:100720000E9467030895CF93C62F813059F480E863
:10073000860F82958F700E9467038C2F8F700E94A6
:1007400067030CC0823051F480EC860F82958F7065
:100750000E9467038C2F8F700E946703CF910895CA
:1007600080E00E9427038FE99FE00197F1F700C026
:10077000000083E00E94670387EE93E00197F1F7A2
:1007800000C0000083E00E94670387E998E00197BA
:10079000F1F700C0000083E00E94670382E00E943E
:1007A000670382E00E94670388E00E94670380E09D
:1007B0000E9467038CE00E94670380E00E94670349
:1007C00086E00E9467030895CF93C82F61E070E030
:1007D0008AE190E00E94E7018C2F82958F700E9441
:1007E000270361E070E08BE190E00E94E70187EC75
:1007F00090E00197F1F700C0000060E070E08BE14D
:1008000090E00E94E70187EC90E00197F1F700C0CB
:1008100000008C2F8F700E94270361E070E08BE155
:1008200090E00E94E70187EC90E00197F1F700C0AB
:10083000000060E070E08BE190E00E94E70187EC4F
:1008400090E00197F1F700C00000CF910895CF9399
:10085000DF93EC018881882331F021960E94E40324
:1008600089918111FBCFDF91CF91089580E487B901
:1008700087E886B9089597B18770982B97B9369A0B
:10088000349BFECF349A84B195B1089580EF81BB3B
:1008900081B38A6081BB919A93981ABA8FEF84BB17
:1008A0009098D89A88E00E945B010E94B00360E0B3
:1008B00080E00E94A80160E081E00E94930380E64E
:1008C00090E00E94BB0180E690E00E94270461E076
:1008D00080E00E94A80160E082E00E9493038BE622
:1008E00090E00E94BB018BE690E00E9427042FEF6E
:1008F00082E597E0215080409040E1F700C0000081
:100900000E94B7010E948C030F2EF9EBEF2EF0E04E
:10091000FF2EF02D0DEC10E0809B12C060E081E016
:100920000E94930384E790E00E94270460E082E045
:100930000E9493038CE790E00E942704919A11C0D3
:1009400060E081E00E94930384E790E00E94270426
:1009500060E082E00E94930380E890E00E94270418
:100960009198CF9BABC060E080E00E94A80184E832
:1009700090E00E94BB012FEF80E792E02150804081
:100980009040E1F700C0000061E080E00E94A80113
:1009900083E990E00E94BB01939A2FEF81EE94E0EF
:1009A000215080409040E1F700C000000E94B70154
:1009B00081EA90E00E94BB010E94360461E080E081
:1009C0000E94A801C0E041E06C2F8DEA90E00E94F7
:1009D000DA012FEF80E792E0215080409040E1F76C
:1009E00000C00000CF5FCA3071F780E00E943B0476
:1009F000BC0180E090E00E94D50520E030E040E6B8
:100A000051E40E94630620E030E040E85AE30E948F
:100A100063069B01AC0160E070E080E691E40E9417
:100A200068054B015C019B01AC0160E070E080EE69
:100A300090E40E9468059B01AC010E9463062AE9CC
:100A400039E949E15FE30E9463069B01AC01C501FE
:100A5000B4010E946805C62FB72EA82E992E0E94B9
:100A6000B70160E080E00E94A8018FEA90E00E9458
:100A7000BB0161E080E00E94A8019F92AF92BF920B
:100A8000CF93FF92EF921F930F930E94AE0BC8017A
:100A90000E94BB012FEF82E597E0215080409040FB
:100AA000E1F700C000000E94B7018DB79EB708961D
:100AB0000FB6F8949EBF0FBE8DBF2ECF60E080E0D2
:100AC0000E94A8018EEB90E00E94BB01939824CF76
:100AD0005058BB27AA270E9480050C9429060E9423
:100AE0001B0638F00E94220620F039F49F3F19F4CB
:100AF00026F40C9418060EF4E095E7FB0C9412060D
:100B0000E92F0E943A0658F3BA1762077307840761
:100B1000950720F079F4A6F50C945C060EF4E095A8
:100B20000B2EBA2FA02D0B01B90190010C01CA01A7
:100B3000A0011124FF27591B99F0593F50F4503E52
:100B400068F11A16F040A22F232F342F4427585F44
:100B5000F3CF469537952795A795F0405395C9F75C
:100B60007EF41F16BA0B620B730B840BBAF0915014
:100B7000A1F0FF0FBB1F661F771F881FC2F70EC0B3
:100B8000BA0F621F731F841F48F487957795679586
:100B9000B795F7959E3F08F0B0CF9395880F08F072
:100BA0009927EE0F979587950895E89409C097FBCC
:100BB0003EF490958095709561957F4F8F4F9F4F34
:100BC0009923A9F0F92F96E9BB279395F695879578
:100BD00077956795B795F111F8CFFAF4BB0F11F43B
:100BE00060FF1BC06F5F7F4F8F4F9F4F16C08823E2
:100BF00011F096E911C0772321F09EE8872F762F18
:100C000005C0662371F096E8862F70E060E02AF058
:100C10009A95660F771F881FDAF7880F9695879544
:100C200097F9089597F99F6780E870E060E008956C
:100C30009FEF80EC089500240A94161617061806F4
:100C40000906089500240A941216130614060506D0
:100C50000895092E0394000C11F4882352F0BB0F61
:100C600040F4BF2B11F460FF04C06F5F7F4F8F4FC4
:100C70009F4F089557FD9058440F551F59F05F3FFF
:100C800071F04795880F97FB991F61F09F3F79F0AE
:100C900087950895121613061406551FF2CF469530
:100CA000F1DF08C0161617061806991FF1CF8695B2
:100CB0007105610508940895E894BB276627772796
:100CC000CB0197F908950E9476060C9429060E949C
:100CD0001B0638F00E94220620F0952311F00C9498
:100CE00012060C94180611240C945D060E943A0614
:100CF00070F3959FC1F3950F50E0551F629FF0016F
:100D0000729FBB27F00DB11D639FAA27F00DB11D87
:100D1000AA1F649F6627B00DA11D661F829F222710
:100D2000B00DA11D621F739FB00DA11D621F839F97
:100D3000A00D611D221F749F3327A00D611D231F6D
:100D4000849F600D211D822F762F6A2F11249F57BB
:100D500050409AF0F1F088234AF0EE0FFF1FBB1FBE
:100D6000661F771F881F91505040A9F79E3F51057D
:100D700080F00C9412060C945D065F3FE4F3983EFD
:100D8000D4F3869577956795B795F795E7959F5F27
:100D9000C1F7FE2B880F911D9695879597F90895B9
:100DA000A0E1B0E0E6EDF6E00C944D0A7C011B01F9
:100DB0006A01FC0117821682838181FF44C39E0170
:100DC0002F5F3F4F3901F7019381F10193FD859129
:100DD00093FF81911F01882309F431C3853239F4CF
:100DE00093FD859193FF81911F01853239F4B701FD
:100DF00090E00E94720B56016501E5CF10E0512C86
:100E0000912CFFE1F915D8F08B3279F038F480326B
:100E100079F08332A1F4F92DF0612EC08D3261F0AA
:100E2000803369F4292D21602DC0392D3260932E35
:100E3000892D8460982E2AC0E92DE86015C097FCA2
:100E40002DC020ED280F2A3088F496FE06C03AE027
:100E5000139F200D1124122F19C08AE0589E200DD7
:100E60001124522EE92DE0629E2E10C08E3231F4F4
:100E700096FCE5C2F92DF0649F2E08C08C3621F453
:100E8000292D2068922E02C0883641F4F10193FD8D
:100E9000859193FF81911F018111B3CF9BEB980F37
:100EA000933020F4992D9061805E07C09BE9980FE4
:100EB000933008F066C1992D9F7E96FF16E09F73D0
:100EC000992E853619F49064992E08C0863621F43F
:100ED000392F3068932E02C01111115097FE07C0B0
:100EE0001C3350F444244394410E27E00BC01830C7
:100EF00038F027E017E005C027E09CE3492E02C048
:100F0000212F412C560184E0A80EB11CF60160810E
:100F1000718182819381042DA3010E94840A6C0156
:100F2000F981FC87F0FF02C0F3FF06C091FC06C008
:100F300092FE06C000E205C00DE203C00BE201C054
:100F400000E08C858C7019F001115AC29BC297FE8B
:100F500010C04C0CFC85F4FF04C08A81813309F475
:100F60004A94141474F528E0241578F588E0482E86
:100F70002CC096FC2AC0812F90E08C159D059CF01A
:100F80003CEFC3163FEFD30674F0892D8068982E8E
:100F90000AC0E2E0F0E0EC0FFD1FE10FF11D8081DF
:100FA000803319F411501111F4CF97FE0EC0442470
:100FB0004394410E812F90E0C816D9062CF41C19D9
:100FC00004C04424439401C010E097FE06C01C14E2
:100FD0001D0434F4C601019605C085E090E002C00E
:100FE00081E090E001110196112331F0212F30E0D2
:100FF0002F5F3F4F820F931F252D30E082179307FD
:1010000014F4581A01C0512C892D897049F45520C7
:1010100039F0B70180E290E00E94720B5A94F7CF4A
:10102000002329F0B701802F90E00E94720B93FCFF
:1010300009C0552039F0B70180E390E00E94720B9F
:101040005A94F7CF97FE4CC04601D7FE02C0812CC0
:10105000912CC60188199909F301E80FF91FFE8741
:10106000ED87960124193109388B2F87012F10E065
:101070001195019511093FEF8316930629F4B701E5
:101080008EE290E00E94720BC814D9044CF08F8558
:1010900098898815990524F4ED85FE85818101C024
:1010A00080E3F1E08F1A91082D853E852F5F3F4F39
:1010B0003E872D87801691062CF0B70190E00E94A4
:1010C000720BD9CFC814D90441F49A81963320F415
:1010D000953319F43C8534FF81E3B70190E04EC0AD
:1010E0008A81813319F09C859F7E9C87B70190E0AF
:1010F0000E94720B111105C094FC18C085E690E0A7
:1011000017C0B7018EE290E00E94720B1E5F82E072
:1011100001E0080FF301E80FF11D8081B70190E0B5
:101120000E94720B802F0113F3CFE6CF85E490E08D
:10113000B7010E94720BD7FC06C0C114D10441F460
:10114000EC85E4FF05C0D194C194D1088DE201C0C3
:101150008BE2B70190E00E94720B80E32AE0C21696
:10116000D1042CF08F5FFAE0CF1AD108F7CFB70186
:1011700090E00E94720BB701C601C0960E94720BEC
:1011800054C1833631F0833779F0833509F056C086
:1011900020C0560132E0A30EB11CF6018081898384
:1011A00001E010E0630112C05601F2E0AF0EB11C85
:1011B000F601C080D18096FE03C0612F70E002C0AE
:1011C0006FEF7FEFC6010E94670B8C01F92DFF774F
:1011D00014C0560122E0A20EB11CF601C080D180DD
:1011E00096FE03C0612F70E002C06FEF7FEFC60173
:1011F0000E945C0B8C01F92DF0689F2EF3FD1AC044
:10120000852D90E008171907A8F4B70180E290E057
:101210000E94720B5A94F4CFF60197FC859197FEC9
:1012200081916F01B70190E00E94720B51105A94A6
:10123000015011090115110579F7F7C0843611F035
:10124000893661F5560197FE09C024E0A20EB11C53
:10125000F60160817181828193810AC0F2E0AF0E54
:10126000B11CF60160817181072E000C880B990B6F
:10127000F92DFF769F2E97FF09C090958095709568
:1012800061957F4F8F4F9F4FF0689F2E2AE030E08F
:10129000A3010E94D00BC82EC6183FC0092D853768
:1012A00021F40F7E2AE030E01DC0097F8F3691F0D7
:1012B00018F4883559F0C3C0803719F0883711F019
:1012C000BEC0006104FF09C0046007C094FE08C0EE
:1012D000066006C028E030E005C020E130E002C032
:1012E00020E132E0560107FF09C084E0A80EB11CDE
:1012F000F601608171818281938108C0F2E0AF0EB6
:10130000B11CF6016081718180E090E0A3010E9430
:10131000D00BC82EC6180F77902E96FE0BC0092D45
:101320000E7FC11650F494FE0AC092FC08C0092D2D
:101330000E7E05C0DC2C092D03C0DC2C01C0D12E93
:1013400004FF0DC0FE01EC0DF11D8081803311F40E
:10135000097E09C002FF06C0D394D39404C0802F35
:10136000867809F0D39403FD11C000FF06C01C2D40
:10137000D51480F4150D1D190DC0D51458F4B701FE
:1013800080E290E00E94720BD394F7CFD51410F452
:101390005D1801C0512C04FF10C0B70180E390E03C
:1013A0000E94720B02FF17C001FD03C088E790E0A6
:1013B00002C088E590E0B7010CC0802F867859F014
:1013C00001FF02C08BE201C080E207FD8DE2B701A0
:1013D00090E00E94720BC11638F4B70180E390E0F0
:1013E0000E94720B1150F7CFCA94F301EC0DF11D5E
:1013F0008081B70190E00E94720BC110F5CF15C03B
:10140000F4E0F51560F584E0581A93FE1FC0011151
:1014100027C02C8523FF2AC004E510E0392D307148
:10142000932EF8018491811124C0552009F4E4CC55
:10143000B70180E290E00E94720B5A94F6CFF70158
:101440008681978126C08FEF9FEF23C0B70180E28E
:1014500090E00E94720B5A945110F8CFD8CF512CC3
:10146000B701802F90E00E94720BD3CF08E510E007
:10147000D5CF91108052B70190E00E94720B0F5FA0
:101480001F4FCFCF23E0251510F483E0BDCF512CA3
:10149000C0CF6096E2E10C94690A2F923F924F927E
:1014A0005F926F927F928F929F92AF92BF92CF92F4
:1014B000DF92EF92FF920F931F93CF93DF93CDB7FD
:1014C000DEB7CA1BDB0B0FB6F894DEBF0FBECDBF75
:1014D00009942A88398848885F846E847D848C8446
:1014E0009B84AA84B984C884DF80EE80FD800C814F
:1014F0001B81AA81B981CE0FD11D0FB6F894DEBF32
:101500000FBECDBFED010895283008F027E0332746
:10151000DA01990F311D87FD916000966105710513
:1015200039F432602E5F3D9330E32A95E1F7089558
:101530009F3F30F080387105610509F03C5F3C5FEA
:101540003D93913008F08068911DDF93CF931F93F6
:101550000F93FF92EF92192F987F9695E92F96950A
:101560009695E90FFF27EA54FF4F99273327EE247A
:10157000FF24A701E70105900894079428F4360F8B
:10158000E71EF81E491F511D660F771F881F991F00
:101590000694A1F70590079428F4E70EF81E491F5A
:1015A000561FC11D770F881F991F661F0694A1F74C
:1015B0000590079428F4F80E491F561FC71FD11D28
:1015C000880F991F661F771F0694A1F7059007944F
:1015D00020F4490F561FC71FD81F990F661F771F8A
:1015E000881F0694A9F784911095177041F0D6953D
:1015F000C79557954795F794E7941A95C1F7ECE589
:10160000F0E068941590159135916591959105904C
:101610007FE27395E118F10A430B560BC90BD00911
:10162000C0F7E10CF11E431F561FC91FD01D7EF4E9
:10163000703311F48A95E6CFE894015030F0080F2A
:101640000AF40027021708F4202F2395022F7A337B
:1016500028F079E37D932A95E9F710C07D932A95C8
:1016600089F6069497956795379517951794E1181D
:10167000F10A430B560BC90BD00998F023957E91C4
:1016800073957A3308F070E37C932013B8F77E915A
:1016900070617D9330F0839571E37D9370E32A95BB
:1016A000E1F71124EF90FF900F911F91CF91DF91FF
:1016B000992787FD90950895FC0105906150704031
:1016C0000110D8F7809590958E0F9F1F0895FC010B
:1016D0006150704001900110D8F7809590958E0F61
:1016E0009F1F08950F931F93CF93DF93FB012381D7
:1016F00021FD03C08FEF9FEF2CC022FF16C0468153
:101700005781248135814217530744F4A081B18168
:101710009D012F5F3F4F318320838C93268137813A
:101720002F5F3F4F3783268314C08B01EC01FB01F1
:101730000084F185E02D0995892BE1F6D8011696F4
:101740008D919C911797019617969C938E9316975F
:10175000CE01DF91CF911F910F910895AEE0B0E0DF
:10176000E4EBFBE00C945B0A0D891E8986E08C8318
:101770001A8309838FEF9FE79E838D83AE01475EB7
:101780005F4F6F89788DCE0101960E94D006EF8160
:10179000F885E00FF11F10822E96E4E00C94770A92
:1017A000FA01AA27283051F1203181F1E8946F9392
:1017B0006E7F6E5F7F4F8F4F9F4FAF4FB1E03ED038
:1017C000B4E03CD0670F781F891F9A1FA11D680FD6
:1017D000791F8A1F911DA11D6A0F711D811D911D09
:1017E000A11D20D009F468943F912AE0269F11247E
:1017F0003019305D3193DEF6CF010895462F4770E2
:10180000405D4193B3E00FD0C9F7F6CF462F4F703C
:10181000405D4A3318F0495D31FD4052419302D09A
:10182000A9F7EACFB4E0A695979587957795679540
:10183000BA95C9F700976105710508959B01AC0140
:101840000A2E06945795479537952795BA95C9F767
:10185000620F731F841F951FA01D0895F894FFCF7A
:1018600053656C66205761746572005075726966C5
:101870006965720057656174686572004472790029
:1018800057657400576574686572206973207765C1
:10189000742000436C6F73696E672056616C7665C7
:1018A00000436865636B696E67207048002E0070A6
:1018B000482076616C75653A00252E3266005761C6
:0C18C000746865722069732077657400FD
:00000001FF
