:1000000012C02CC02BC02AC029C028C027C026C0BF
:1000100025C024C023C022C021C020C01FC01EC0D4
:100020001DC01CC01BC011241FBECFE5D4E0DEBF25
:10003000CDBF10E0A0E6B0E0EAEAFBE002C0059028
:100040000D92A239B107D9F720E0A2E9B0E001C0D2
:100050001D92A63AB207E1F70CD0A5C5D1CF87B95A
:1000600087ED86B9349BFECF84B125B190E0922B09
:1000700008952FEF83EC99E0215080409040E1F704
:1000800000C000001F921F9288E38F9387E08F9338
:100090001F9282E38F930F2EF6E08F2EF02D0F2EFE
:1000A000F2E3AF2EB12CF02D0F2EF5E0CF2EF02D78
:1000B0000F2EF2E3EF2EF12CF02D04E022E330E0DE
:1000C00043E062E370E082E990E078D12FEF83ECC7
:1000D00099E0215080409040E1F700C0000082E9A3
:1000E00090E079D260E670E082E990E034D20F903F
:1000F0000F900F900F900F900F90C0E0D0E003E7AB
:1001000010E0219682E990E066D280E0A8DFDF93DC
:10011000CF939F938F931F930F9382E990E09F93C8
:100120008F932ED28FEF99E628E1815090402040A6
:10013000E1F700C000008DB79EB708960FB6F8949F
:100140009EBF0FBE8DBFDDCFDC011E963C911E977A
:100150001296ED91FC911397208181E090E002C00E
:10016000880F991F3A95E2F7822B80830895DC016E
:100170001E963C911E971296ED91FC91139720814B
:1001800081E090E002C0880F991F3A95E2F78095D0
:100190009095822380830895DC011F963C911F97E0
:1001A0001496ED91FC911597208181E090E002C0BA
:1001B000880F991F3A95E2F7822B80830895DC011E
:1001C0001F963C911F971496ED91FC9115972081F5
:1001D00081E090E002C0880F991F3A95E2F7809580
:1001E0009095822380830895CF93DF93EC01D4DF31
:1001F0008AE18A95F1F700C0CE01E1DFDF91CF916E
:1002000008958F929F92AF92BF92CF92DF92FF920A
:100210000F931F93CF93DF93EC01F62E8FE396E0BD
:100220000197F1F700C00000442319F0CE018CDFE4
:10023000AEC0CE019CDFABC04B0192E0890E911C99
:10024000CE01880D991DDC011E968C915F012681DF
:100250003781D9014C91D60102C0AA0FBB1F8A95E4
:10026000E2F7CD01809590958423D9018C93AB0161
:10027000161617065CF421E030E080E090E0220FD3
:10028000331F019684179507D4F302C021E030E0B4
:100290002295207F2F21A9F0D401AC0FBD1F1E96FF
:1002A0008C91D5011696AD90BC901797D5012C91E5
:1002B000A60102C0440F551F8A95E2F7CA01822B9E
:1002C0008C936F5F7F4F32966430710509F0B4CF25
:1002D0008FE891E00197F1F700C00000CE0184DFC4
:1002E00060E070E0AA24A394B12CFB013296CE0109
:1002F0008E0F9F1FDC011E968C916801D801169607
:100300002D913C911797D9014C91D50102C0AA0FAC
:10031000BB1F8A95E2F7CD01809590958423D90182
:100320008C93AB01161617065CF421E030E080E0F8
:1003300090E0220F331F019684179507D4F302C073
:1003400021E030E02F2191F0EC0FFD1F8685D601D2
:100350001696ED91FC9117972081A50102C0440FDC
:10036000551F8A95E2F7CA01822B80836F5F7F4F0A
:100370000E5F1F4F6430710509F0B7CF8FE891E031
:100380000197F1F700C00000CE012EDF08C08E01FA
:10039000FE0160E070E0CC24C394D12C4DCFDF91FE
:1003A000CF911F910F91FF90DF90CF90BF90AF90B2
:1003B0009F908F90089540E024DF08956F927F9280
:1003C0008F92AF92BF92CF92EF92FF920F931F93B3
:1003D000CF93DF9300D000D0CDB7DEB73C01498387
:1003E0000A83CB828C82FC01738362838981868736
:1003F000358324838A818787F782E6828B81808B8D
:10040000B186A0868C81818B8B899C89938782871A
:100410008D89828B8E899F8995878487888D838B30
:10042000D301129680E090E061E070E0F301E80F04
:10043000F91F2685ED91FD9142918B0102C0000FBD
:10044000111F2A95E2F79801242B2083019686300C
:10045000910561F71FEF26E781E0115020408040B1
:10046000E1F700C0000060E3C301A5DFC301BCDE0B
:10047000EFE1FEE43197F1F700C0000060E3C30153
:100480009ADFC301B1DE8FED91E00197F1F700C073
:10049000000060E3C3018FDFC301A6DEEFEDF1E0F2
:1004A0003197F1F700C0000068E2C30184DFC301A7
:1004B0009BDE68E0C3017FDFC30196DE61E0C3011C
:1004C0007ADFC30191DE8FE39FE10197F1F700C06E
:1004D000000066E0C3016FDFC30186DE6CE0C3018C
:1004E0006ADFC30181DE0F900F900F900F90DF91B4
:1004F000CF911F910F91FF90EF90CF90BF90AF9051
:100500008F907F906F900895623031F0633031F0BA
:10051000613031F440E405C044E103C044E501C06A
:1005200040E0262F30E0FC013183208360E8640F37
:1005300042DF08956A3061F4FC01608171816330AB
:1005400071051CF060E0E0DF08956F5FDDDF089566
:1005500041E057DE08950F931F93CF93DF93EB0194
:100560002196FB016081662331F08C01C801E2DF36
:1005700069916111FBCFDF91CF911F910F91089588
:10058000CF93DF93CDB7DEB7DA950FB6F894DEBF21
:100590000FBECDBF9E01275F3E4FC95FDE4F488132
:1005A0005981C750D1406FEF70E0CE01019619D04C
:1005B000BE016F5F7F4FCB5FDE4F88819981C55051
:1005C000D140C9DFD3950FB6F894DEBF0FBECDBFC3
:1005D000DF91CF910895FC011182108262E0EBDE81
:1005E0000895AEE0B0E0E6EFF2E0B4C28C01FA01AB
:1005F00086E08C831A83098377FF02C060E070E88D
:10060000CB0101979E838D83A901BF01CE01019685
:1006100011D04D815E8157FD0AC02F813885421768
:1006200053070CF49A01F801E20FF31F10822E9683
:10063000E4E0ACC2ABE0B0E0EFE1F3E07DC26C011E
:100640007B018A01FC0117821682838181FFBFC171
:10065000CE0101963C01F6019381F70193FD85914E
:1006600093FF81917F01882309F4ADC1853239F46C
:1006700093FD859193FF81917F01853221F4B6012D
:1006800090E0C0D1E8CF912C212C312CFFE1F31563
:10069000D8F08B3279F038F4803279F08332A1F4DB
:1006A000232D20611DC08D3261F0803369F4232D2C
:1006B000216016C0832D8260382EE32DE4603E2E2B
:1006C0002AC0F32DF8601DC037FC2DC020ED280F87
:1006D0002A3040F08E32B9F436FC75C1232D2064E7
:1006E000322E19C036FE06C08AE0989E200D1124D5
:1006F000922E11C0EAE02E9E200D1124222EF32D01
:10070000F0623F2E08C08C3621F4832D8068382E8D
:1007100002C0883641F4F70193FD859193FF8191E2
:100720007F018111B3CF982F9F7D9554933028F48A
:100730000C5F1F4F9FE399830DC0833631F08337E1
:1007400071F0833509F055C020C0F801808189839C
:100750000E5F1F4F88248394912C530112C02801EF
:10076000F2E04F0E511CF801A080B18036FE03C0AC
:10077000692D70E002C06FEF7FEFC50138D14C01E9
:100780008201F32DFF773F2E15C0280122E0420E93
:10079000511CF801A080B18036FE03C0692D70E0C5
:1007A00002C06FEF7FEFC50117D14C01F32DF06848
:1007B0003F2E820133FC19C0822D90E088169906E5
:1007C000A0F4B60180E290E01DD12A94F5CFF501A6
:1007D00037FC859137FE81915F01B60190E012D11F
:1007E00021102A9421E0821A91088114910479F74A
:1007F000E1C0843611F0893639F5F80137FE07C0BB
:1008000060817181828193810C5F1F4F08C060817C
:100810007181072E000C880B990B0E5F1F4FF32D73
:10082000FF763F2E97FF09C0909580957095619552
:100830007F4F8F4F9F4FF0683F2E2AE030E0A3019B
:100840001DD1882E861844C0853731F4232D2F7E84
:10085000B22E2AE030E025C0932D997FB92E8F3635
:10086000C1F018F4883579F0AEC0803719F08837B8
:1008700021F0A9C0E92FE061BE2EB4FE0DC0FB2D12
:10088000F460BF2E09C034FE0AC0292F2660B22EA4
:1008900006C028E030E005C020E130E002C020E1E1
:1008A00032E0F801B7FE07C06081718182819381D7
:1008B0000C5F1F4F06C06081718180E090E00E5F89
:1008C0001F4FA301DBD0882E8618FB2DFF773F2E0C
:1008D00036FE0DC0232D2E7FA22E891458F434FE2F
:1008E0000BC032FC09C0832D8E7EA82E05C0B82C0B
:1008F000A32C03C0B82C01C0B92CA4FE0FC0FE016C
:10090000E80DF11D8081803321F49A2D997EA92E66
:1009100009C0A2FE06C0B394B39404C08A2D8678A1
:1009200009F0B394A3FC10C0A0FE06C0B21480F47A
:10093000280C922C9B180DC0B21458F4B60180E21A
:1009400090E060D0B394F8CFB21418F42B1802C022
:10095000982C212CA4FE0FC0B60180E390E052D069
:10096000A2FE16C0A1FC03C088E790E002C088E5A3
:1009700090E0B6010CC08A2D867851F0A1FE02C02D
:100980008BE201C080E2A7FC8DE2B60190E03AD094
:10099000891430F4B60180E390E034D09A94F8CF13
:1009A0008A94F301E80DF11D8081B60190E02AD010
:1009B0008110F6CF222009F44ECEB60180E290E0FD
:1009C00021D02A94F7CFF6018681978102C08FEF5C
:1009D0009FEF2B96E2E1CCC0FC0105906150704086
:1009E0000110D8F7809590958E0F9F1F0895FC01F8
:1009F0006150704001900110D8F7809590958E0F4E
:100A00009F1F08950F931F93CF93DF93FB012381C3
:100A100021FD03C08FEF9FEF2CC022FF16C046813F
:100A20005781248135814217530744F4A081B18155
:100A30009D012F5F3F4F318320838C932681378127
:100A40002F5F3F4F3783268314C08B01EC01FB01DE
:100A50000084F185E02D0995892BE1F6D8011696E1
:100A60008D919C911797019617969C938E9316974C
:100A7000CE01DF91CF911F910F910895FA01AA271E
:100A8000283051F1203181F1E8946F936E7F6E5FD1
:100A90007F4F8F4F9F4FAF4FB1E03ED0B4E03CD07F
:100AA000670F781F891F9A1FA11D680F791F8A1F62
:100AB000911DA11D6A0F711D811D911DA11D20D0C9
:100AC00009F468943F912AE0269F11243019305D83
:100AD0003193DEF6CF010895462F4770405D419374
:100AE000B3E00FD0C9F7F6CF462F4F70405D4A33C1
:100AF00018F0495D31FD4052419302D0A9F7EACF89
:100B0000B4E0A6959795879577956795BA95C9F7B7
:100B100000976105710508959B01AC010A2E0694AA
:100B20005795479537952795BA95C9F7620F731F63
:100B3000841F951FA01D08952F923F924F925F92A0
:100B40006F927F928F929F92AF92BF92CF92DF92DD
:100B5000EF92FF920F931F93CF93DF93CDB7DEB742
:100B6000CA1BDB0B0FB6F894DEBF0FBECDBF0994D6
:100B70002A88398848885F846E847D848C849B842D
:100B8000AA84B984C884DF80EE80FD800C811B813B
:100B9000AA81B981CE0FD11D0FB6F894DEBF0FBE6A
:0A0BA000CDBFED010895F894FFCFDA
:100BAA00706F636B65746D616769632E6E6574201F
:100BBA002020005261696E2073656E736F72207413
:100BCA006573740A4144433A256420202020256431
:020BDA00000019
:00000001FF
