S0140000693263616E642044485431312E737265637D
S11300000C942A000C9447000C9447000C9447006D
S11300100C9447000C9447000C9447000C94470040
S11300200C9447000C9447000C9447000C94470030
S11300300C9447000C9447000C9447000C94470020
S11300400C9447000C9447000C9447000C94470010
S11300500C94470011241FBECFE5D8E0DEBFCDBF0E
S113006010E0A0E6B0E0ECEEF4E002C005900D92E2
S1130070A838B107D9F720E0A8E8B0E001C01D9284
S1130080AF38B207E1F70E948E010C9474020C940D
S11300900000982F84EA86BFE6E5F0E0808188239B
S11300A0ECF781B1887F883021F0803111F081E054
S11300B0089593B984E886BFE6E5F0E0808188235B
S11300C0ECF781B1982F987F983111F480E008956E
S11300D080E0903409F081E0089584E986BFE6E584
S11300E0F0E0808184FDFDCF089583B984E886BF64
S11300F0E6E5F0E080818823ECF781B190E0887F29
S1130100883209F091E0892F08950F931F93082FE7
S11301108EE40E944900102F107F80918800182BD4
S11301201560812F0E9475001A7F80918800812BB1
S11301300E9475000295007F109188001560102BB5
S1130140812F0E9475001A7F80918800812B0E9464
S113015075000E946D001F910F9108951F93CF9316
S1130160DF93EC010097B9F010E007C0FE01E80F3F
S1130170F91F80810E9485001F5F812F90E0AC2FC2
S1130180BD2FFD0101900020E9F73197EA1BFB0B1D
S11301908E179F0758F3DF91CF911F910895FF9217
S11301A00F931F93F82E8EE40E94490080EFF822EB
S11301B08091880084608F290E94750000ED17E00B
S11301C0C8010197F1F7809188008F290E9475007A
S11301D0C8010197F1F70E946D001F910F91FF90E4
S11301E00895EF92FF920F931F93E82E8EE40E94DE
S11301F049000F2EF0EFFF2EF02DFE208091880095
S113020084608F290E94750000ED17E0C8010197F2
S1130210F1F7809188008F290E947500C801019729
S1130220F1F7FE2CFF0CFF0CFF0CFF0C80918800F3
S113023084608F290E947500C8010197F1F78091AD
S113024088008F290E947500C8010197F1F70E9468
S11302506D001F910F91FF90EF90089581E00E942F
S1130260F1000895623031F0633031F0613029F4E7
S1130270805C03C08C5E01C08C5A80680E94F100CF
S113028008958093880080E30E94CF0080E30E9459
S1130290CF0080E30E94CF0080E20E94CF0080E480
S11302A09CE90197F1F788E20E94F1008CE00E943A
S11302B0F10086E00E94F10081E00E94F1000895BF
S11302C08D9A95988FE99CE80197F1F700C000009A
S11302D0959A08958D988599FECF859BFECF859933
S11302E0FECF089588E090E0859BFECF20E52A9517
S11302F0F1F7859B07C020918900220F216020938C
S1130300890005C020918900220F209389008599D6
S1130310FECF019749F7809189000895CF93DF9329
S113032000D000D01F92CDB7DEB788E00E94410113
S11303300E942E0160E080E00E94320180E690E09D
S11303400E94AE0061E080E00E9432018BE690E002
S11303500E94AE000E9460010E946A010E94720124
S113036080938D000E94720180938A000E94720122
S113037080938C000E94720180938E000E9472010F
S113038080938B00E0918D00F0E090918A009F01B2
S1130390290F311D90918C00290F311D90918E00F1
S11303A0290F311D482F50E02417350749F060E02C
S11303B080E00E9432018BE790E00E94AE004AC0C8
S11303C04AE0BE016F5F7F4FCF010E943F0260E0B1
S11303D08BE00E943201CE0101960E94AE0081E8BA
S11303E090E00E94AE0080918A004AE0BE016F5FF7
S11303F07F4F90E00E943F02CE0101960E94AE0022
S113040083E890E00E94AE0080918C004AE0BE0137
S11304106F5F7F4F90E00E943F0261E087E00E949F
S11304203201CE0101960E94AE0081E890E00E9464
S1130430AE0080918E004AE0BE016F5F7F4F90E076
S11304400E943F02CE0101960E94AE0085E890E032
S11304500E94AE002FEF89E698E121508040904041
S1130460E1F700C000000E942E012FEF89E698E119
S1130470215080409040E1F700C000005FCFBB27CF
S11304804A3031F4992322F4BDE2909581959F4F2F
S11304900C944B02BB27FB015527AA27880F991FF1
S11304A0AA1FA41710F0A41B83955051B9F7A05D9F
S11304B0AA3308F0A95DA193009779F7B111B1931C
S11304C01192CB010C946402DC01FC01672F719141
S11304D07723E1F7329704C07C916D937083629126
S10F04E0AE17BF07C8F30895F894FFCFCF
S11304EC73656C66207761746572007075726966E9
S11304FC792D5465616D20233236004572726F720A
S10B050C002E0025004320002D
S9030000FC
