S0100000736F6C6F6E6F69642E73726563AD
S11300000C942A000C9434000C9434000C943400A6
S11300100C9434000C9434000C9434000C9434008C
S11300200C9434000C9434000C9434000C9434007C
S11300300C9434000C9434000C9434000C9434006C
S11300400C9434000C9434000C9434000C9434005C
S11300500C94340011241FBECFE5D8E0DEBFCDBF21
S11300600E9436000C9445000C940000A09A91E084
S113007085B3892785BB2FE33DE083E021503040E1
S11100808040E1F700C00000F3CFF894FFCFFA
S9030000FC
