:1000000093C0ADC0ACC0ABC0AAC0A9C0A8C0A7C0B7
:10001000A6C0A5C0A4C0A3C0A2C0A1C0A0C09FC0CC
:100020009EC09DC09CC06E616E00696E66000040FF
:100030007A10F35A00A0724E18090010A5D4E800F7
:1000400000E87648170000E40B54020000CA9A3B0F
:10005000000000E1F5050000809698000000404295
:100060000F000000A0860100000010270000000023
:10007000E803000000006400000000000A00000027
:1000800000000100000000002C76D888DC674F08D3
:1000900023DFC1DFAE59E1B1B796E5E3E453C63AD9
:1000A000E651997696E8E6C28426EB898C9B62ED50
:1000B000407C6FFCEFBC9C9F40F2BAA56FA5F4900A
:1000C000055A2AF75C936B6CF9676DC11BFCE0E481
:1000D0000D47FEF520E6B500D0ED902E03009435D7
:1000E00077050080841E080000204E0A000000C82A
:1000F0000C333333330F986E12831141EF8D21147B
:10010000893BE65516CFFEE6DB18D1844B381BF74A
:100110007C1D901DA4BBE424203284725E228100E9
:10012000C9F124ECA1E53D2711241FBECFE5D4E0A1
:10013000DEBFCDBF10E0A0E6B0E0E6EEF5E102C024
:1001400005900D92AC3CB107D9F710E0ACECB0E0F3
:1001500001C01D92AC3EB107E1F75BD442CA50CF5B
:1001600097B18F71907E892B87B9349A369A3499DA
:10017000FECF84B195B1392F20E090E0822B932BF4
:10018000089533983798089596B1987F982B96B92B
:10019000089597B18295880F880F807C9F73892B73
:1001A00087B90895379A359886E0EEDF81E0F1DF70
:1001B0003D98339A7894089587B987ED86B9349B32
:1001C000FECF84B190E045B1342F20E0822B932BF9
:1001D0000895DC011296ED91FC91139720811E96F3
:1001E0003C911E9781E090E002C0880F991F3A95DC
:1001F000E2F7282B20830895DC011296ED91FC9103
:10020000139720811E963C911E9781E090E002C0DA
:10021000880F991F3A95E2F780958223808308958D
:10022000DC011496ED91FC91159720811F963C916D
:100230001F9781E090E002C0880F991F3A95E2F77E
:10024000282B20830895DC011496ED91FC911597DD
:1002500020811F963C911F9781E090E002C0880F9B
:10026000991F3A95E2F78095822380830895CF9372
:10027000DF93EC01D5DF8AE18A95F1F700C0CE016A
:10028000E2DFDF91CF91089540E050E021E030E0DF
:1002900070E090E00AC0F901E89F9001E99F300DFD
:1002A000F89F300D11244F5F5F4F461757079CF39F
:1002B000C9010895BF92CF92DF92EF92FF920F9300
:1002C0001F93CF93DF93EC01B62E8FE396E0019757
:1002D000F1F700C00000CE01442311F07ADF01C025
:1002E0008BDF6E018E0162E070E0A1E0EA2EF12C5E
:1002F000F801A681B7812C91FE01E60FF71F8685D4
:10030000A70102C0440F551F8A95E2F7CA018095E4
:1003100082238C9340E050E081E090E09B012250EA
:10032000304004C0880F991F4F5F5F4F421753073B
:10033000CCF38295807F8B2181F0F801A681B78173
:100340002C91FE01E60FF71F8685A70102C0440F1E
:10035000551F8A95E2F7242B2C936F5F7F4F0E5F1A
:100360001F4F6630710521F68FE891E00197F1F794
:1003700000C00000CE017BDF62E070E001E010E031
:10038000F601A681B7812C91FE01E60FF71F868545
:10039000A80102C0440F551F8A95E2F7CA01809553
:1003A00082238C9340E050E081E090E09B0122505A
:1003B000304004C0880F991F4F5F5F4F42175307AB
:1003C000CCF38B2181F0F601A681B7812C91FE013F
:1003D000E60FF71F8685A80102C0440F551F8A95B6
:1003E000E2F7242B2C936F5F7F4F82E090E0C80EE2
:1003F000D91E6630710521F6EFE8F1E03197F1F78B
:1004000000C00000CE0133DFDF91CF911F910F912B
:10041000FF90EF90DF90CF90BF90089540E04ADFCB
:1004200008956F927F928F92AF92BF92CF92EF9288
:10043000FF920F931F93CF93DF9300D000D0CDB7DF
:10044000DEB73C0149830A83CB828C82DC011396A0
:100450007C936E93129789811E968C931E971596A6
:100460003C932E9314978A811F968C931F9717960F
:10047000FC92EE9216978B8150968C93509719961A
:10048000BC92AE9218978C8151968C9351978B8920
:100490009C891B969C938E931A978D8952968C9368
:1004A00052978E899F891D969C938E931C97888D59
:1004B00053968C93A30120E030E001E010E0FA01B4
:1004C000A281B3816E91F301E20FF31F8685F801DB
:1004D00002C0EE0FFF1F8A95E2F76E2B6C932F5F21
:1004E0003F4F4E5F5F4F2630310549F78FEF96E75C
:1004F000A1E081509040A040E1F700C00000C3019E
:1005000060E38CDFC301B3DEAFE1BEE41197F1F726
:1005100000C00000C30160E381DFC301A8DEEFED8E
:10052000F1E03197F1F700C00000C30160E376DF2E
:10053000C3019DDE8FED91E00197F1F700C000004F
:10054000C30168E26BDFC30192DEC30168E066DFCE
:10055000C3018DDEC30161E061DFC30188DEAFE36B
:10056000BFE11197F1F700C00000C30166E056DF5C
:10057000C3017DDEC3016CE051DFC30178DE0F9063
:100580000F900F900F90DF91CF911F910F91FF90DF
:10059000EF90CF90BF90AF908F907F906F90089525
:1005A0000895E62FE150E33028F4F0E0EF56FF4FD6
:1005B000208101C020E0FC0160831182622F60581D
:1005C0002DDF08956A3059F4FC0160817181633038
:1005D000710514F060E001C06F5FE3DF089541E052
:1005E00069DE08950F931F93CF93DF938C01EB0186
:1005F00002C0C801E7DF69916623D9F7DF91CF9187
:100600001F910F910895CF93DF93CDB7DEB7C05000
:10061000D1400FB6F894DEBF0FBECDBF9E01275F5D
:100620003E4FCE0101966FEF70E0C95FDE4F48810B
:100630005981C750D1404FD7CB5FDE4F8881998118
:10064000C550D140BE016F5F7F4FCCDFC050DF4F40
:100650000FB6F894DEBF0FBECDBFDF91CF910895E6
:10066000FC011182108261E0D9DE8FEC97E00197E6
:10067000F1F700C000000895FC011182108262E0D1
:10068000CDDE0895FC01DB017183608353834283D7
:1006900025833C9181E090E002C0880F991F2A9544
:1006A000E2F7382B3C930895FC016483A281B38167
:1006B00035812C9181E090E002C0880F991F3A9516
:1006C000E2F7662319F0282B2C9308958095822356
:1006D0008C93089561E0FC012481621BE5DF08959D
:1006E000FF920F931F93CF93DF93EC01F22E798348
:1006F00068835B834A83FB01EE0FFF1FE60FF71F42
:10070000EE0FFF1FEE0FFF1FEC54FF4FA281B381CE
:10071000FB0114E0EE0FFF1F1A95E1F7EC56FF4FB7
:1007200001E010E09801008402C0220F331F0A94F8
:10073000E2F7C801068002C0880F991F0A94E2F709
:10074000822B8C9388819981FC01EE0FFF1FE80FAB
:10075000F91FEE0FFF1FEE0FFF1FEC54FF4FA48198
:10076000B581FC0124E0EE0FFF1F2A95E1F7EC565E
:10077000FF4F9801048402C0220F331F0A94E2F74E
:10078000C801028402C0880F991F0A94E2F7822BE5
:100790008C93CA019C01442737FD4095542F60E497
:1007A00072E48FE090E024D5215030403D832C83CB
:1007B00088819981FC01EE0FFF1FE80FF91FEE0FF2
:1007C000FF1FEE0FFF1FEC54FF4F0084F185E02D5B
:1007D000308388819981FC01EE0FFF1FE80FF91F1C
:1007E000EE0FFF1FEE0FFF1FEC54FF4F0284F38547
:1007F000E02D8C818083FF2011F188819981FC019B
:10080000EE0FFF1FE80FF91FEE0FFF1FEE0FFF1F88
:10081000EC54FF4F0280F381E02D2081DC0144E0A5
:10082000AA0FBB1F4A95E1F7AC56BF4F0C9002C010
:10083000000F111F0A94E2F7202B20837894DF9198
:10084000CF911F910F91FF900895DC018D919C91A4
:10085000AC01440F551FFA01E80FF91FEE0FFF1FFF
:10086000EE0FFF1FEC54FF4FA081B181FC0134E07B
:10087000EE0FFF1F3A95E1F7EC56FF4F72812C9176
:1008800030E0072E02C0359527950A94E2F720FF45
:10089000F6CF840F951F880F991F880F991F8C54CE
:1008A0009F4FDC011696ED91FC9117976083089598
:1008B000CF92DF92EF92FF920F931F93CF93DF932C
:1008C0006C01EA018FEF4F3F580739F4EB010990B3
:1008D0000020E9F72197C61BD70B7B0100E010E051
:1008E00007C0F70161917F01C601AFDF0F5F1F4FA6
:1008F0000C171D07B4F3F60180819181FC01EE0F06
:10090000FF1FE80FF91FEE0FFF1FEE0FFF1FEC5444
:10091000FF4FA081B181FC0164E0EE0FFF1F6A95DB
:10092000E1F7EC56FF4F26858C9190E0022E02C035
:10093000959587950A94E2F780FFF6CFDF91CF91E6
:100940001F910F91FF90EF90DF90CF900895CF937C
:10095000DF93CDB7DEB7C050D2400FB6F894DEBFFC
:100960000FBECDBF9E01275F3D4FCE0101966FEFB9
:1009700071E0C95FDD4F48815981C750D240ABD586
:10098000CB5FDD4F88819981C550D240BE016F5F3A
:100990007F4F4FEF5FEF8CDFC050DE4F0FB6F89404
:1009A000DEBF0FBECDBFDF91CF910895DC018D91E9
:1009B0009C91AC01440F551FFA01E80FF91FEE0F8F
:1009C000FF1FEE0FFF1FEC54FF4FA081B181FC0110
:1009D00034E0EE0FFF1F3A95E1F7EC56FF4F6481CC
:1009E0002C9130E0062E02C0359527950A94E2F747
:1009F00020FFF6CF840F951F880F991F880F991F2E
:100A00008C549F4FDC011696ED91FC9117978081D5
:100A100008958FEF93ECA9E081509040A040E1F75A
:100A200000C0000000D000D000D0EDB7FEB7319676
:100A300082E390E0ADB7BEB712969C938E93119768
:100A400087E0828388E390E09483838315828CEC33
:100A500090E062E370E043E022E330E004E052E340
:100A6000E52EF12CC5E0CC2ED2E3AD2EB12C16E054
:100A7000812ED7DC8FEF93ECA9E081509040A0400D
:100A8000E1F700C00000ADB7BEB716960FB6F894F8
:100A9000BEBF0FBEADBF8CEC90E0EEDD8CEC90E005
:100AA00060E670E09FDDC0E0D0E00CEC10E043E7D2
:100AB000E42E40E0F42E21968CEC90E0DDDD80E029
:100AC0007BDB2DB73EB7285030400FB6F8943EBFC1
:100AD0000FBE2DBFEDB7FEB73196ADB7BEB71296BC
:100AE0001C930E931197F382E28295838483D783BC
:100AF000C68389DD8FEF99E6A8E181509040A04040
:100B0000E1F700C00000ADB7BEB718960FB6F89475
:100B1000BEBF0FBEADBFCFCFA5E1B0E0E1E9F5E0CC
:100B200089C34C017F876E87FC01178216828381FF
:100B300081FD04C058C34C855D8504C01E01089426
:100B4000211C311CF4019381EE85FF8593FD859175
:100B500093FF8191FF87EE87882309F440C3853294
:100B600041F493FD859193FF8191FF87EE87853254
:100B700051F490E0B4014C8B5D8B81D44C895D893C
:100B80005D874C87D8CFFF24DD2410E01032B0F40D
:100B90008B3269F08C3228F4803251F0833271F458
:100BA0000BC08D3239F0803349F411602CC01260D3
:100BB000146029C0186027C0106125C017FD2EC021
:100BC000282F20532A3098F416FF08C08F2D880F45
:100BD000F82EFF0CFF0CF80EF20E15C08D2D880FAD
:100BE000D82EDD0CDD0CD80ED20E10620CC08E3269
:100BF00021F416FDF4C2106406C08C3611F410689E
:100C000002C0883659F4EE85FF8593FD859193FFE8
:100C10008191FF87EE87882309F0B8CF982F9554EC
:100C2000933018F41061805E06C0982F955693306B
:100C300008F091C11F7E16FD02C0E6E0FE2E1F7374
:100C4000853611F4106406C0863611F4106802C0AF
:100C5000F110FA9417FF07C0FBE3FF1548F0EF2CE3
:100C6000E39427E00DC027E02F1530F02F2D07C0AB
:100C700027E07CE3E72E04C027E067E0F62EEE24B1
:100C8000CA0104969D878C87FA01608171818281F7
:100C90009381A1010E2D05D35C01C9802C2D30E07C
:100CA000398B288BC0FE03C0388933FF06C011FD85
:100CB00006C012FF06C000E205C00DE203C00BE251
:100CC00001C000E0888999898C7090700097C9F103
:100CD000002311F084E001C083E08D1550F4D81A90
:100CE00013FD08C080E290E0B401C9D3DA94D1F7D3
:100CF00001C0DD24002321F0802F90E0B401BFD398
:100D0000888983FD05C03AE2E32E30E0F32E10C05F
:100D100026E2E22E20E0F22E0BC00115110509F0AB
:100D2000805290E0B401ABD30894E11CF11C04C0E4
:100D3000012F10E000711070F7018491882369F78A
:100D40004BC217FF0EC0EA0CF889F4FF04C08A8179
:100D5000813309F4EA941E144CF528E02E1548F16D
:100D60002CC016FD2AC08F2D90E08A159B0544F0FB
:100D70003CEFA3163FEFB3061CF0106801C0FA94D5
:100D8000FF2049F0E2E0F0E0EC0FFD1FEF0DF11D58
:100D900080818033A1F317FF10C0EF2CE3948F2DD7
:100DA00090E0A816B90644F4FA1807C0EE24E394BC
:100DB00004C098E0E92E01C0FF2417FF07C01A14F1
:100DC0001B043CF495012F5F3F4F05C025E030E048
:100DD00002C021E030E0002311F02F5F3F4FFF20E1
:100DE00029F08F2D90E00196280F391F8D2D90E06E
:100DF0002817390714F4D21A01C0DD24612E772494
:100E0000C30189709070009741F405C080E290E0C2
:100E1000B40135D3DA94DD20C9F7002321F0802F07
:100E200090E0B4012CD363FC08C005C080E390E0DF
:100E3000B40125D3DA94DD20C9F717FF46C0850138
:100E4000B7FE02C000E010E06624772495012E1959
:100E500031093B8B2A8B2501401A510A420C531C45
:100E60006F2D70E0EE24FF24E61AF70A3FEF0F3FE4
:100E7000130721F48EE290E0B40101D3A016B1066D
:100E800054F02A893B89201731072CF4F201E60D32
:100E9000F71D818101C080E3015010400894611C5E
:100EA000711C0E151F0524F090E0B401E8D2DECFCE
:100EB0000A151B0541F49A81963320F4953319F4F1
:100EC000388934FF81E390E043C08A81813311F097
:100ED0009FEEC92290E0B401D2D2FF2079F08EE2D9
:100EE00090E0B401CCD212E0F101E10FF11D1F5FDF
:100EF000808190E0B401C3D2FA94B1F764FE03C0DC
:100F000085E490E002C085E690E0B401B8D2B7FC79
:100F100005C0A114B10441F4C4FE06C0B094A1946C
:100F2000B108B3948DE201C08BE290E0B401A7D286
:100F300080E305C08F5FE6EFFFEFAE0EBF1EFAE065
:100F4000AF16B104BCF790E0B40199D2C501C096C8
:100F5000B40195D241C1833631F0833789F08335AE
:100F600009F055C021C09A012E5F3F4F3D872C8765
:100F7000FA018081898381E0E82EF12C510112C0B1
:100F80009A012E5F3F4F3D872C87FA01A080B180E8
:100F900016FF03C06F2D70E002C06FEF7FEFC50139
:100FA00063D27C011F7713C09A012E5F3F4F3D87AC
:100FB0002C87FA01A080B18016FF03C06F2D70E06E
:100FC00002C06FEF7FEFC50144D27C01106813FDB2
:100FD0001AC005C080E290E0B40151D2DA948D2DA0
:100FE00090E0E816F906B0F30EC0F50117FD859103
:100FF00017FF81915F0190E0B40141D2D110DA94E2
:101000000894E108F108E114F10479F7E5C08436A9
:1010100011F0893669F59A0117FF0AC02C5F3F4F1E
:101020003D872C87FA0180819181A281B3810BC019
:101030002E5F3F4F3D872C87FA0180819181AA273F
:1010400097FDA095BA2F012F0F76B7FF08C0B09576
:10105000A095909581959F4FAF4FBF4F0068BC0101
:10106000CD01A1012AE030E05ED2E82EE21840C0B6
:10107000853721F41F7E2AE030E020C0197F8F36AB
:10108000A9F0803720F4883509F0A9C00BC080375B
:1010900021F0883709F0A3C001C0106114FF09C016
:1010A000146007C014FF08C0166006C028E030E0D6
:1010B00005C020E130E002C020E132E0CA0117FFA4
:1010C00009C004969D878C87FA01608171818281B5
:1010D000938108C002969D878C87FA016081718197
:1010E00080E090E0A1011FD2E82EE218012F0F77D7
:1010F00006FF09C00E7FEF1430F404FF06C002FDA6
:1011000004C00F7E02C01E2D01C01F2D802F90E055
:1011100004FF0CC0FE01EE0DF11D2081203311F4FF
:10112000097E09C002FF06C01E5F05C08678907068
:10113000009709F01F5FA02EBB2403FD11C000FF24
:101140000CC0FE2C1D1548F4FD0CF11A1D2D05C018
:1011500080E290E0B40193D11F5F1D15C8F304C075
:101160001D1510F4D11A01C0DD24A4FE0EC080E3C9
:1011700090E0B40184D1A2FE1DC0A1FE03C088E5A9
:1011800090E010C088E790E00DC0C50186789070AF
:10119000009781F0A1FC02C080E201C08BE207FD54
:1011A0008DE290E0B4016BD105C080E390E0B40122
:1011B00066D1FA94EF14C8F3EA94F101EE0DF11D33
:1011C000808190E0B4015BD1EE20B1F705C080E2F0
:1011D00090E0B40154D1DA94DD20C9F7ACCCF4012D
:1011E0008681978102C08FEF9FEF6596E2E13EC056
:1011F000A1E21A2EAA1BBB1BFD010DC0AA1FBB1F1B
:10120000EE1FFF1FA217B307E407F50720F0A21B8C
:10121000B30BE40BF50B661F771F881F991F1A94F9
:1012200069F760957095809590959B01AC01BD0123
:10123000CF0108952F923F924F925F926F927F92CB
:101240008F929F92AF92BF92CF92DF92EF92FF92D6
:101250000F931F93CF93DF93CDB7DEB7CA1BDB0B82
:101260000FB6F894DEBF0FBECDBF09942A88398827
:1012700048885F846E847D848C849B84AA84B9842E
:10128000C884DF80EE80FD800C811B81AA81B9813A
:10129000CE0FD11D0FB6F894DEBF0FBECDBFED014E
:1012A0000895283008F027E03327DA01990F311D1F
:1012B00087FD916000966105710539F432602E5FFB
:1012C0003D9330E32A95E1F708959F3F30F0803851
:1012D0007105610509F03C5F3C5F3D93913008F07A
:1012E0008068911DDF93CF931F930F93FF92EF922E
:1012F000192F987F9695E92F96959695E90FFF27D8
:10130000E857FF4F99273327EE24FF24A701E70171
:1013100005900894079428F4360FE71EF81E491F1D
:10132000511D660F771F881F991F0694A1F705901E
:10133000079428F4E70EF81E491F561FC11D770FAA
:10134000881F991F661F0694A1F70590079428F43B
:10135000F80E491F561FC71FD11D880F991F661F02
:10136000771F0694A1F70590079420F4490F561FA4
:10137000C71FD81F990F661F771F881F0694A9F7EC
:1013800084911095177041F0D695C795579547955C
:10139000F794E7941A95C1F7EEE2F0E0689415909F
:1013A000159135916591959105907FE27395E118BE
:1013B000F10A430B560BC90BD009C0F7E10CF11E23
:1013C000431F561FC91FD01D7EF4703311F48A9538
:1013D000E6CFE894015030F0080F0AF40027021716
:1013E00008F4202F2395022F7A3328F079E37D9398
:1013F0002A95E9F710C07D932A9589F6069497956A
:101400006795379517951794E118F10A430B560B1A
:10141000C90BD00998F023957E9173957A3308F023
:1014200070E37C932013B8F77E9170617D9330F068
:10143000839571E37D9370E32A95E1F71124EF9092
:10144000FF900F911F91CF91DF91992787FD909584
:101450000895FC010590615070400110D8F7809507
:1014600090958E0F9F1F0895FC0161507040019070
:101470000110D8F7809590958E0F9F1F08950F93B8
:101480001F93CF93DF938C01EB018B8181FF1BC0F6
:1014900082FF0DC02E813F818C819D8128173907E5
:1014A00064F4E881F9810193F983E88306C0E88553
:1014B000F985802F0995009731F48E819F810196DF
:1014C0009F838E8302C00FEF1FEFC801DF91CF9182
:1014D0001F910F910895AEE0B0E0E0E7FAE0B8CEDA
:1014E0008C0186E08C831A83098377FF02C060E059
:1014F00070E8615070407E836D83CE010196BA0121
:10150000A9010ADB4D815E8157FD0AC02F81388514
:10151000421753070CF49A01020F131FF8011082AF
:101520002E96E4E0B1CEFA01AA27283051F12031FD
:1015300081F1E8946F936E7F6E5F7F4F8F4F9F4F67
:10154000AF4FB1E03ED0B4E03CD0670F781F891FA9
:101550009A1FA11D680F791F8A1F911DA11D6A0F77
:10156000711D811D911DA11D20D009F468943F912A
:101570002AE0269F11243019305D3193DEF6CF0129
:101580000895462F4770405D4193B3E00FD0C9F7EF
:10159000F6CF462F4F70405D4A3318F0495D31FD5C
:1015A0004052419302D0A9F7EACFB4E0A6959795AF
:1015B000879577956795BA95C9F700976105710585
:1015C00008959B01AC010A2E0694579547953795CF
:1015D0002795BA95C9F7620F731F841F951FA01D29
:0615E0000895F894FFCF0E
:1015E600706F636B65746D616769632E6E657420D9
:1015F6002020005261696E2073656E736F722074CD
:101606006573740A4144433A2564202020202564EA
:101616000040145407000500070004000300010001
:1016260002000600000000000000000000000000AC
:10163600000000002B002A0040002C00400029007A
:0C16460000000000000000000000000098
:00000001FF
